{
  "_format": "hh-sol-artifact-1",
  "contractName": "LendingPool",
  "sourceName": "contracts/protocol/lendingpool/LendingPool.sol",
  "abi": [
    {
      "anonymous": false,
      "inputs": [
        {
          "indexed": true,
          "internalType": "address",
          "name": "reserve",
          "type": "address"
        },
        {
          "indexed": false,
          "internalType": "address",
          "name": "user",
          "type": "address"
        },
        {
          "indexed": true,
          "internalType": "address",
          "name": "onBehalfOf",
          "type": "address"
        },
        {
          "indexed": false,
          "internalType": "uint256",
          "name": "amount",
          "type": "uint256"
        },
        {
          "indexed": false,
          "internalType": "uint256",
          "name": "borrowRate",
          "type": "uint256"
        },
        {
          "indexed": true,
          "internalType": "uint16",
          "name": "referral",
          "type": "uint16"
        }
      ],
      "name": "Borrow",
      "type": "event"
    },
    {
      "anonymous": false,
      "inputs": [
        {
          "indexed": true,
          "internalType": "address",
          "name": "reserve",
          "type": "address"
        },
        {
          "indexed": false,
          "internalType": "address",
          "name": "user",
          "type": "address"
        },
        {
          "indexed": true,
          "internalType": "address",
          "name": "onBehalfOf",
          "type": "address"
        },
        {
          "indexed": false,
          "internalType": "uint256",
          "name": "amount",
          "type": "uint256"
        },
        {
          "indexed": true,
          "internalType": "uint16",
          "name": "referral",
          "type": "uint16"
        }
      ],
      "name": "Deposit",
      "type": "event"
    },
    {
      "anonymous": false,
      "inputs": [
        {
          "indexed": true,
          "internalType": "address",
          "name": "collateralAsset",
          "type": "address"
        },
        {
          "indexed": true,
          "internalType": "address",
          "name": "debtAsset",
          "type": "address"
        },
        {
          "indexed": true,
          "internalType": "address",
          "name": "user",
          "type": "address"
        },
        {
          "indexed": false,
          "internalType": "uint256",
          "name": "debtToCover",
          "type": "uint256"
        },
        {
          "indexed": false,
          "internalType": "uint256",
          "name": "liquidatedCollateralAmount",
          "type": "uint256"
        },
        {
          "indexed": false,
          "internalType": "address",
          "name": "liquidator",
          "type": "address"
        },
        {
          "indexed": false,
          "internalType": "bool",
          "name": "receiveTToken",
          "type": "bool"
        }
      ],
      "name": "LiquidationCall",
      "type": "event"
    },
    {
      "anonymous": false,
      "inputs": [],
      "name": "Paused",
      "type": "event"
    },
    {
      "anonymous": false,
      "inputs": [
        {
          "indexed": true,
          "internalType": "address",
          "name": "reserve",
          "type": "address"
        },
        {
          "indexed": true,
          "internalType": "address",
          "name": "user",
          "type": "address"
        },
        {
          "indexed": true,
          "internalType": "address",
          "name": "repayer",
          "type": "address"
        },
        {
          "indexed": false,
          "internalType": "uint256",
          "name": "amount",
          "type": "uint256"
        }
      ],
      "name": "Repay",
      "type": "event"
    },
    {
      "anonymous": false,
      "inputs": [
        {
          "indexed": true,
          "internalType": "address",
          "name": "reserve",
          "type": "address"
        },
        {
          "indexed": false,
          "internalType": "uint256",
          "name": "liquidityRate",
          "type": "uint256"
        },
        {
          "indexed": false,
          "internalType": "uint256",
          "name": "stableBorrowRate",
          "type": "uint256"
        },
        {
          "indexed": false,
          "internalType": "uint256",
          "name": "variableBorrowRate",
          "type": "uint256"
        },
        {
          "indexed": false,
          "internalType": "uint256",
          "name": "liquidityIndex",
          "type": "uint256"
        },
        {
          "indexed": false,
          "internalType": "uint256",
          "name": "variableBorrowIndex",
          "type": "uint256"
        }
      ],
      "name": "ReserveDataUpdated",
      "type": "event"
    },
    {
      "anonymous": false,
      "inputs": [
        {
          "indexed": true,
          "internalType": "address",
          "name": "reserve",
          "type": "address"
        },
        {
          "indexed": true,
          "internalType": "address",
          "name": "user",
          "type": "address"
        }
      ],
      "name": "ReserveUsedAsCollateralDisabled",
      "type": "event"
    },
    {
      "anonymous": false,
      "inputs": [
        {
          "indexed": true,
          "internalType": "address",
          "name": "reserve",
          "type": "address"
        },
        {
          "indexed": true,
          "internalType": "address",
          "name": "user",
          "type": "address"
        }
      ],
      "name": "ReserveUsedAsCollateralEnabled",
      "type": "event"
    },
    {
      "anonymous": false,
      "inputs": [],
      "name": "Unpaused",
      "type": "event"
    },
    {
      "anonymous": false,
      "inputs": [
        {
          "indexed": true,
          "internalType": "address",
          "name": "reserve",
          "type": "address"
        },
        {
          "indexed": true,
          "internalType": "address",
          "name": "user",
          "type": "address"
        },
        {
          "indexed": true,
          "internalType": "address",
          "name": "to",
          "type": "address"
        },
        {
          "indexed": false,
          "internalType": "uint256",
          "name": "amount",
          "type": "uint256"
        }
      ],
      "name": "Withdraw",
      "type": "event"
    },
    {
      "inputs": [
        {
          "internalType": "address",
          "name": "asset",
          "type": "address"
        },
        {
          "internalType": "uint256",
          "name": "amount",
          "type": "uint256"
        },
        {
          "internalType": "uint16",
          "name": "referralCode",
          "type": "uint16"
        },
        {
          "internalType": "address",
          "name": "onBehalfOf",
          "type": "address"
        }
      ],
      "name": "borrow",
      "outputs": [],
      "stateMutability": "nonpayable",
      "type": "function"
    },
    {
      "inputs": [
        {
          "internalType": "address",
          "name": "asset",
          "type": "address"
        },
        {
          "internalType": "uint256",
          "name": "amount",
          "type": "uint256"
        },
        {
          "internalType": "address",
          "name": "onBehalfOf",
          "type": "address"
        },
        {
          "internalType": "uint16",
          "name": "referralCode",
          "type": "uint16"
        }
      ],
      "name": "deposit",
      "outputs": [],
      "stateMutability": "nonpayable",
      "type": "function"
    },
    {
      "inputs": [
        {
          "internalType": "address",
          "name": "asset",
          "type": "address"
        },
        {
          "internalType": "address",
          "name": "from",
          "type": "address"
        },
        {
          "internalType": "address",
          "name": "to",
          "type": "address"
        },
        {
          "internalType": "uint256",
          "name": "amount",
          "type": "uint256"
        },
        {
          "internalType": "uint256",
          "name": "balanceFromBefore",
          "type": "uint256"
        },
        {
          "internalType": "uint256",
          "name": "balanceToBefore",
          "type": "uint256"
        }
      ],
      "name": "finalizeTransfer",
      "outputs": [],
      "stateMutability": "nonpayable",
      "type": "function"
    },
    {
      "inputs": [],
      "name": "getAddressesProvider",
      "outputs": [
        {
          "internalType": "contract IAddressesProviderFactory",
          "name": "",
          "type": "address"
        }
      ],
      "stateMutability": "view",
      "type": "function"
    },
    {
      "inputs": [
        {
          "internalType": "address",
          "name": "asset",
          "type": "address"
        }
      ],
      "name": "getConfiguration",
      "outputs": [
        {
          "components": [
            {
              "internalType": "uint256",
              "name": "data",
              "type": "uint256"
            }
          ],
          "internalType": "struct DataTypes.ReserveConfigurationMap",
          "name": "",
          "type": "tuple"
        }
      ],
      "stateMutability": "view",
      "type": "function"
    },
    {
      "inputs": [
        {
          "internalType": "address",
          "name": "asset",
          "type": "address"
        }
      ],
      "name": "getReserveData",
      "outputs": [
        {
          "components": [
            {
              "components": [
                {
                  "internalType": "uint256",
                  "name": "data",
                  "type": "uint256"
                }
              ],
              "internalType": "struct DataTypes.ReserveConfigurationMap",
              "name": "configuration",
              "type": "tuple"
            },
            {
              "internalType": "uint128",
              "name": "liquidityIndex",
              "type": "uint128"
            },
            {
              "internalType": "uint128",
              "name": "variableBorrowIndex",
              "type": "uint128"
            },
            {
              "internalType": "uint128",
              "name": "currentLiquidityRate",
              "type": "uint128"
            },
            {
              "internalType": "uint128",
              "name": "currentVariableBorrowRate",
              "type": "uint128"
            },
            {
              "internalType": "uint40",
              "name": "lastUpdateTimestamp",
              "type": "uint40"
            },
            {
              "internalType": "address",
              "name": "tTokenAddress",
              "type": "address"
            },
            {
              "internalType": "address",
              "name": "variableDebtTokenAddress",
              "type": "address"
            },
            {
              "internalType": "address",
              "name": "interestRateStrategyAddress",
              "type": "address"
            },
            {
              "internalType": "uint8",
              "name": "id",
              "type": "uint8"
            }
          ],
          "internalType": "struct DataTypes.ReserveData",
          "name": "",
          "type": "tuple"
        }
      ],
      "stateMutability": "view",
      "type": "function"
    },
    {
      "inputs": [
        {
          "internalType": "address",
          "name": "asset",
          "type": "address"
        }
      ],
      "name": "getReserveNormalizedIncome",
      "outputs": [
        {
          "internalType": "uint256",
          "name": "",
          "type": "uint256"
        }
      ],
      "stateMutability": "view",
      "type": "function"
    },
    {
      "inputs": [
        {
          "internalType": "address",
          "name": "asset",
          "type": "address"
        }
      ],
      "name": "getReserveNormalizedVariableDebt",
      "outputs": [
        {
          "internalType": "uint256",
          "name": "",
          "type": "uint256"
        }
      ],
      "stateMutability": "view",
      "type": "function"
    },
    {
      "inputs": [],
      "name": "getReservesList",
      "outputs": [
        {
          "internalType": "address[]",
          "name": "",
          "type": "address[]"
        }
      ],
      "stateMutability": "view",
      "type": "function"
    },
    {
      "inputs": [
        {
          "internalType": "address",
          "name": "user",
          "type": "address"
        }
      ],
      "name": "getUserAccountData",
      "outputs": [
        {
          "internalType": "uint256",
          "name": "totalCollateralUSD",
          "type": "uint256"
        },
        {
          "internalType": "uint256",
          "name": "totalDebtUSD",
          "type": "uint256"
        },
        {
          "internalType": "uint256",
          "name": "availableBorrowsUSD",
          "type": "uint256"
        },
        {
          "internalType": "uint256",
          "name": "currentLiquidationThreshold",
          "type": "uint256"
        },
        {
          "internalType": "uint256",
          "name": "ltv",
          "type": "uint256"
        },
        {
          "internalType": "uint256",
          "name": "healthFactor",
          "type": "uint256"
        }
      ],
      "stateMutability": "view",
      "type": "function"
    },
    {
      "inputs": [
        {
          "internalType": "address",
          "name": "asset",
          "type": "address"
        },
        {
          "internalType": "address",
          "name": "tTokenAddress",
          "type": "address"
        },
        {
          "internalType": "address",
          "name": "variableDebtTokenAddress",
          "type": "address"
        },
        {
          "internalType": "address",
          "name": "reserveInterestRateStrategyAddress",
          "type": "address"
        }
      ],
      "name": "initReserve",
      "outputs": [],
      "stateMutability": "nonpayable",
      "type": "function"
    },
    {
      "inputs": [
        {
          "internalType": "contract IAddressesProviderFactory",
          "name": "provider",
          "type": "address"
        },
        {
          "internalType": "uint256",
          "name": "providerId",
          "type": "uint256"
        }
      ],
      "name": "initialize",
      "outputs": [],
      "stateMutability": "nonpayable",
      "type": "function"
    },
    {
      "inputs": [
        {
          "internalType": "address",
          "name": "collateralAsset",
          "type": "address"
        },
        {
          "internalType": "address",
          "name": "debtAsset",
          "type": "address"
        },
        {
          "internalType": "address",
          "name": "user",
          "type": "address"
        },
        {
          "internalType": "uint256",
          "name": "debtToCover",
          "type": "uint256"
        },
        {
          "internalType": "bool",
          "name": "receiveTToken",
          "type": "bool"
        }
      ],
      "name": "liquidationCall",
      "outputs": [],
      "stateMutability": "nonpayable",
      "type": "function"
    },
    {
      "inputs": [],
      "name": "paused",
      "outputs": [
        {
          "internalType": "bool",
          "name": "",
          "type": "bool"
        }
      ],
      "stateMutability": "view",
      "type": "function"
    },
    {
      "inputs": [
        {
          "internalType": "address",
          "name": "asset",
          "type": "address"
        },
        {
          "internalType": "uint256",
          "name": "amount",
          "type": "uint256"
        },
        {
          "internalType": "address",
          "name": "onBehalfOf",
          "type": "address"
        }
      ],
      "name": "repay",
      "outputs": [
        {
          "internalType": "uint256",
          "name": "",
          "type": "uint256"
        }
      ],
      "stateMutability": "nonpayable",
      "type": "function"
    },
    {
      "inputs": [
        {
          "internalType": "address",
          "name": "asset",
          "type": "address"
        },
        {
          "internalType": "uint256",
          "name": "configuration",
          "type": "uint256"
        }
      ],
      "name": "setConfiguration",
      "outputs": [],
      "stateMutability": "nonpayable",
      "type": "function"
    },
    {
      "inputs": [
        {
          "internalType": "bool",
          "name": "val",
          "type": "bool"
        }
      ],
      "name": "setPause",
      "outputs": [],
      "stateMutability": "nonpayable",
      "type": "function"
    },
    {
      "inputs": [
        {
          "internalType": "address",
          "name": "asset",
          "type": "address"
        },
        {
          "internalType": "address",
          "name": "rateStrategyAddress",
          "type": "address"
        }
      ],
      "name": "setReserveInterestRateStrategyAddress",
      "outputs": [],
      "stateMutability": "nonpayable",
      "type": "function"
    },
    {
      "inputs": [
        {
          "internalType": "address",
          "name": "asset",
          "type": "address"
        },
        {
          "internalType": "uint256",
          "name": "amount",
          "type": "uint256"
        },
        {
          "internalType": "address",
          "name": "to",
          "type": "address"
        }
      ],
      "name": "withdraw",
      "outputs": [
        {
          "internalType": "uint256",
          "name": "",
          "type": "uint256"
        }
      ],
      "stateMutability": "nonpayable",
      "type": "function"
    }
  ],
  "bytecode": "0x608060405234801561001057600080fd5b50613646806100206000396000f3fe608060405234801561001057600080fd5b50600436106101205760003560e01c8063b8d29276116100ad578063d15e005311610071578063d15e005314610275578063d1946dbc14610288578063d5ed39331461029d578063e8eda9df146102b0578063fe65acfe146102c357610120565b8063b8d29276146101f7578063bedb86fb1461020a578063bf92857c1461021d578063c44b11f714610242578063cd6dc6871461026257610120565b8063386497fd116100f4578063386497fd146101895780635c975abb146101a95780635ceae9c4146101be57806369328dec146101d15780638bd25677146101e457610120565b8062a718a9146101255780631d2118f91461013a5780631d5d72371461014d57806335ea6a7514610160575b600080fd5b610138610133366004612dae565b6102d8565b005b610138610148366004612d1b565b6104b3565b61013861015b366004612f36565b6104ec565b61017361016e366004612ce3565b61056a565b6040516101809190613447565b60405180910390f35b61019c610197366004612ce3565b610636565b6040516101809190613569565b6101b161065d565b60405161018091906132d1565b61019c6101cc366004612ea4565b610666565b61019c6101df366004612ea4565b6108d1565b6101386101f2366004612d53565b610bec565b610138610205366004612e79565b610cc3565b610138610218366004612f6c565b610cdf565b61023061022b366004612ce3565b610d5a565b60405161018096959493929190613599565b610255610250366004612ce3565b610e3c565b604051610180919061343d565b610138610270366004612e79565b610e6f565b61019c610283366004612ce3565b610e9a565b610290610ebb565b6040516101809190613284565b6101386102ab366004612e15565b610f60565b6101386102be366004612ee5565b610fc9565b6102cb6111fd565b60405161018091906130d3565b6102e061120c565b600080546001546040516365c4014960e11b81526001600160a01b039092169163cb8802929161031291600401613569565b60206040518083038186803b15801561032a57600080fd5b505afa15801561033e573d6000803e3d6000fd5b505050506040513d601f19601f820116820180604052508101906103629190612cff565b905060006060826001600160a01b0316888888888860405160240161038b959493929190613131565b60408051601f198184030181529181526020820180516001600160e01b031662a718a960e01b179052516103bf91906130b7565b600060405180830381855af49150503d80600081146103fa576040519150601f19603f3d011682016040523d82523d6000602084013e6103ff565b606091505b50915091508160405180604001604052806002815260200161323360f01b815250906104475760405162461bcd60e51b815260040161043e91906132dc565b60405180910390fd5b5060006060828060200190518101906104609190612fbc565b91509150816000148160405160200161047991906130b7565b604051602081830303815290604052906104a65760405162461bcd60e51b815260040161043e91906132dc565b5050505050505050505050565b6104bb61124a565b6001600160a01b03918216600090815260026020526040902060050180546001600160a01b03191691909216179055565b6104f461120c565b6001600160a01b03808516600081815260026020908152604091829020825160e081018452938452339184019190915284841691830191909152606082018690526003810154600160281b9004909216608082015261ffff841660a0820152600160c08201526105639061130f565b5050505050565b610572612b40565b506001600160a01b0381811660009081526002602081815260409283902083516101608101855281546101408201908152815260018201546001600160801b0380821694830194909452600160801b9081900484169582019590955292810154808316606085015293909304166080820152600382015464ffffffffff811660a0830152600160281b9004831660c08201526004820154831660e0820152600590910154918216610100820152600160a01b90910460ff166101208201525b919050565b6001600160a01b038116600090815260026020526040812061065790611714565b92915050565b60065460ff1690565b600061067061120c565b6001600160a01b038416600090815260026020526040812090610693848361178a565b604051630274777960e41b815290915073__$de8c0cf1a7d7c36c802af9a64fb9d86036$__906327477790906106d3908590899089908790600401613545565b60006040518083038186803b1580156106eb57600080fd5b505af41580156106ff573d6000803e3d6000fd5b508392505050808610156107105750845b6107198361180e565b6004838101546001850154604051637a94c56560e11b81526001600160a01b039092169263f5298aca92610763928a928792600160801b9092046001600160801b03169101613214565b600060405180830381600087803b15801561077d57600080fd5b505af1158015610791573d6000803e3d6000fd5b505050506003830154600160281b90046001600160a01b03166107b88489838560006118e3565b6107c28383611b55565b6107fa5760058401546001600160a01b03871660009081526003602052604081206107fa929091600160a01b90910460ff1690611b97565b61080f6001600160a01b038916338385611c07565b6040516388dd91a160e01b81526001600160a01b038216906388dd91a19061083d9033908690600401613118565b600060405180830381600087803b15801561085757600080fd5b505af115801561086b573d6000803e3d6000fd5b50505050336001600160a01b0316866001600160a01b0316896001600160a01b03167f4cdde6e09bb755c9a5589ebaec640bbfedff1362d4b255ebf8339782b9942faa856040516108bc9190613569565b60405180910390a450925050505b9392505050565b60006108db61120c565b6001600160a01b03808516600090815260026020526040808220600381015491516370a0823160e01b81529093600160281b909204909116919082906370a082319061092b9033906004016130d3565b60206040518083038186803b15801561094357600080fd5b505afa158015610957573d6000803e3d6000fd5b505050506040513d601f19601f8201168201806040525081019061097b9190612fa4565b90508560001981141561098b5750805b3360009081526003602052604080822060055492546001549251636909579b60e01b815273__$de8c0cf1a7d7c36c802af9a64fb9d86036$__9463d09db04a948e9488948a946002949293600493926001600160a01b031691636909579b916109f5918601613569565b60206040518083038186803b158015610a0d57600080fd5b505afa158015610a21573d6000803e3d6000fd5b505050506040513d601f19601f82011682018060405250810190610a459190612cff565b6040518963ffffffff1660e01b8152600401610a6898979695949392919061323e565b60006040518083038186803b158015610a8057600080fd5b505af4158015610a94573d6000803e3d6000fd5b50505050610aa18461180e565b610aaf8489856000856118e3565b81811415610b19576005840154336000908152600360205260408120610ae2929091600160a01b90910460ff1690611c77565b60405133906001600160a01b038a16907f44c58d81365b66dd4b1a7f36c25aa97b8c71c361ee4937adc1a00000227db5dd90600090a35b6001840154604051636b81068560e11b81526001600160a01b0385169163d7020d0a91610b5a9133918b9187916001600160801b03909116906004016130e7565b600060405180830381600087803b158015610b7457600080fd5b505af1158015610b88573d6000803e3d6000fd5b50505050856001600160a01b0316336001600160a01b0316896001600160a01b03167f3115d1449a7b732c986cba18244e897a450f61e1bb8d589cd2e69e6c8924f9f784604051610bd99190613569565b60405180910390a4979650505050505050565b610bf584611ced565b6040518060400160405280600281526020016106e760f31b81525090610c2e5760405162461bcd60e51b815260040161043e91906132dc565b506001600160a01b038416600090815260026020526040908190209051636047157f60e01b815273__$22cd43a9dda9ce44e9b92ba393b88fb9ac$__91636047157f91610c849190879087908790600401613510565b60006040518083038186803b158015610c9c57600080fd5b505af4158015610cb0573d6000803e3d6000fd5b50505050610cbd84611d26565b50505050565b6001600160a01b03909116600090815260026020526040902055565b610ce761124a565b6006805460ff1916821515179081905560ff1615610d2d576040517f9e87fac88ff661f02d44f95383c817fece4bce600a3dab7a54406878b965e75290600090a1610d57565b6040517fa45f47fdea8a1efdd9029a5691c7f759c32b7c698632b563573e155625d1693390600090a15b50565b6001600160a01b0380821660009081526003602090815260408083208151928301825254825260055483546001549251636909579b60e01b8152949586958695869586958695610e19958d95600295946004949390921691636909579b91610dc491908601613569565b60206040518083038186803b158015610ddc57600080fd5b505afa158015610df0573d6000803e3d6000fd5b505050506040513d601f19601f82011682018060405250810190610e149190612cff565b611e34565b93995091975090945092509050610e3186868461224b565b935091939550919395565b610e44612b9b565b506001600160a01b031660009081526002602090815260409182902082519182019092529054815290565b600080546001600160a01b0319166001600160a01b0393909316929092179091556001556080600955565b6001600160a01b03811660009081526002602052604081206106579061227f565b60608060055467ffffffffffffffff81118015610ed757600080fd5b50604051908082528060200260200182016040528015610f01578160200160208202803683370190505b50905060005b600554811015610f5a5760008181526004602052604090205482516001600160a01b0390911690839083908110610f3a57fe5b6001600160a01b0390921660209283029190910190910152600101610f07565b50905090565b6001600160a01b0380871660009081526002602081815260409283902060030154835180850190945291835261363360f01b90830152909133600160281b9092041614610fc05760405162461bcd60e51b815260040161043e91906132dc565b50505050505050565b610fd161120c565b6001600160a01b038416600090815260026020526040908190209051630eca322b60e01b815273__$de8c0cf1a7d7c36c802af9a64fb9d86036$__90630eca322b906110239084908890600401613537565b60006040518083038186803b15801561103b57600080fd5b505af415801561104f573d6000803e3d6000fd5b505050506003810154600160281b90046001600160a01b03166110718261180e565b61107f8287838860006118e3565b6110946001600160a01b038716338388611c07565b6001820154604051630ab714fb60e11b81526000916001600160a01b0384169163156e29f6916110d69189918b916001600160801b0390911690600401613214565b602060405180830381600087803b1580156110f057600080fd5b505af1158015611104573d6000803e3d6000fd5b505050506040513d601f19601f820116820180604052508101906111289190612f88565b905080156111a25760058301546001600160a01b038616600090815260036020526040902061116291600160a01b900460ff166001611c77565b846001600160a01b0316876001600160a01b03167e058a56ea94653cdf4f152d227ace22d4c00ad99e2a43f58cb7d9e3feb295f260405160405180910390a35b8361ffff16856001600160a01b0316886001600160a01b03167fde6857219544bb5b7746f48ed30be6386fefc61b2f864cacf559893bf50fd951338a6040516111ec929190613118565b60405180910390a450505050505050565b6000546001600160a01b031690565b6006546040805180820190915260028152610d8d60f21b60208201529060ff1615610d575760405162461bcd60e51b815260040161043e91906132dc565b60005460015460405163e77ab6f760e01b815233926001600160a01b03169163e77ab6f79161127c9190600401613569565b60206040518083038186803b15801561129457600080fd5b505afa1580156112a8573d6000803e3d6000fd5b505050506040513d601f19601f820116820180604052508101906112cc9190612cff565b6001600160a01b03161460405180604001604052806002815260200161323760f01b81525090610d575760405162461bcd60e51b815260040161043e91906132dc565b80516001600160a01b0390811660009081526002602090815260408083208186015185168452600390925280832083546001549251636909579b60e01b81529395919493911691636909579b916113699190600401613569565b60206040518083038186803b15801561138157600080fd5b505afa158015611395573d6000803e3d6000fd5b505050506040513d601f19601f820116820180604052508101906113b99190612cff565b905060006114606113c9856122d7565b600a0a61145a8760600151856001600160a01b031663b3596f078a600001516040518263ffffffff1660e01b815260040161140491906130d3565b60206040518083038186803b15801561141c57600080fd5b505afa158015611430573d6000803e3d6000fd5b505050506040513d601f19601f820116820180604052508101906114549190612fa4565b906122e1565b9061231b565b905073__$de8c0cf1a7d7c36c802af9a64fb9d86036$__63b2b8f2ea866000015186886040015189606001518660028a60046005548c6040518b63ffffffff1660e01b81526004016114bb9a999897969594939291906131bf565b60006040518083038186803b1580156114d357600080fd5b505af41580156114e7573d6000803e3d6000fd5b505050506114f48461180e565b600484810154602087015160408089015160608a015160018a0154925163b3f1c93d60e01b81526000966001600160a01b039096169563b3f1c93d956115509590949392600160801b9091046001600160801b031691016130e7565b602060405180830381600087803b15801561156a57600080fd5b505af115801561157e573d6000803e3d6000fd5b505050506040513d601f19601f820116820180604052508101906115a29190612f88565b905080156115c65760058501546115c6908590600160a01b900460ff166001611b97565b6115f58660000151876080015160008960c001516115e55760006115eb565b89606001515b89939291906118e3565b8560c001511561168d5785608001516001600160a01b0316634efecaa5876020015188606001516040518363ffffffff1660e01b8152600401611639929190613118565b602060405180830381600087803b15801561165357600080fd5b505af1158015611667573d6000803e3d6000fd5b505050506040513d601f19601f8201168201806040525081019061168b9190612fa4565b505b8560a0015161ffff1686604001516001600160a01b031687600001516001600160a01b03167f39884ffb02602a13fb58b50134a8735509d9c8f846d749abcb003939e159f73389602001518a606001518a60020160109054906101000a90046001600160801b031660405161170493929190613214565b60405180910390a4505050505050565b600381015460009064ffffffffff90811690421681141561174b5750506001810154600160801b90046001600160801b0316610631565b60018301546002840154600091611782916001600160801b03600160801b9283900481169261177c9204168561235d565b9061236a565b949350505050565b6004808201546040516370a0823160e01b81526000926001600160a01b03909216916370a08231916117be918791016130d3565b60206040518083038186803b1580156117d657600080fd5b505afa1580156117ea573d6000803e3d6000fd5b505050506040513d601f19601f820116820180604052508101906108ca9190612fa4565b60008160040160009054906101000a90046001600160a01b03166001600160a01b031663b1bf962d6040518163ffffffff1660e01b815260040160206040518083038186803b15801561186057600080fd5b505afa158015611874573d6000803e3d6000fd5b505050506040513d601f19601f820116820180604052508101906118989190612fa4565b600183015460038401549192506001600160801b03600160801b820481169291169064ffffffffff166000806118d187878688876123fd565b91509150610fc087878785858861255a565b6118eb612bae565b60018601546004808801546040805163b1bf962d60e01b8152905161198294600160801b90046001600160801b0316936001600160a01b039093169263b1bf962d92808201926020929091829003018186803b15801561194a57600080fd5b505afa15801561195e573d6000803e3d6000fd5b505050506040513d601f19601f8201168201806040525081019061177c9190612fa4565b6060820181905260058701546001600160a01b0316906381c8c9729087908790879087906119af8d612644565b6040518763ffffffff1660e01b81526004016119d096959493929190613189565b604080518083038186803b1580156119e757600080fd5b505afa1580156119fb573d6000803e3d6000fd5b505050506040513d601f19601f82011682018060405250810190611a1f9190613063565b604080840191909152602080840183905281518083019092526002825261353360f01b90820152906001600160801b031015611a6e5760405162461bcd60e51b815260040161043e91906132dc565b50604080820151815180830190925260028252610d4d60f21b60208301526001600160801b031015611ab35760405162461bcd60e51b815260040161043e91906132dc565b5060208101516002870180546040808501516001600160801b03818116600160801b9081028288166fffffffffffffffffffffffffffffffff199096169590951782169490941790945560018b015491516001600160a01b038b16957f4063a2df84b66bb796eb32622851d833e57b2c4292900c18f963af8808b13e3595611b45959194808216939290041690613572565b60405180910390a2505050505050565b60006108ca83836040518060400160405280601e81526020017f536166654d6174683a207375627472616374696f6e206f766572666c6f77000081525061264f565b604080518082019091526002815261373760f01b602082015260808310611bd15760405162461bcd60e51b815260040161043e91906132dc565b508160020281611be2576000611be5565b60015b60ff16901b826002026001901b19846000015416178360000181905550505050565b610cbd846323b872dd60e01b858585604051602401611c2893929190613165565b60408051601f198184030181529190526020810180516001600160e01b03167fffffffff000000000000000000000000000000000000000000000000000000009093169290921790915261267b565b604080518082019091526002815261373760f01b602082015260808310611cb15760405162461bcd60e51b815260040161043e91906132dc565b508160020260010181611cc5576000611cc8565b60015b60ff16901b826002026001016001901b19846000015416178360000181905550505050565b6000813f7fc5d2460186f7233c927e7db2dcc703c0e500b653ca82273b7bfad8045d85a470818114801590611782575050151592915050565b600554600954604080518082019091526002815261363560f01b6020820152908210611d655760405162461bcd60e51b815260040161043e91906132dc565b506001600160a01b038216600090815260026020526040812060050154600160a01b900460ff16151580611dce57506000805260046020527f17ef568e3e12ab5b9c7254a8d58478811de00f9e6eb34345acd53bf8fd09d3ec546001600160a01b038481169116145b905080611e2f576001600160a01b03831660008181526002602090815260408083206005908101805460ff60a01b1916600160a01b60ff8a1602179055868452600490925290912080546001600160a01b0319169092179091556001830190555b505050565b6000806000806000611e44612bd6565b611e4d8a612760565b15611e6b57600080600080600019955095509550955095505061223d565b600060e08201525b878160e00151101561219c5760e0810151611e8f908b90612765565b611e985761218c565b60e0810151600090815260208a81526040808320546001600160a01b03166101e085018190528352908d90529020611ecf816127b6565b506080860181905260c08601929092525060a0840191909152600a0a60208301526101e082015160405163b3596f0760e01b81526001600160a01b038a169163b3596f0791611f2191906004016130d3565b60206040518083038186803b158015611f3957600080fd5b505afa158015611f4d573d6000803e3d6000fd5b505050506040513d601f19601f82011682018060405250810190611f719190612fa4565b825260c082015115801590611f91575060e0820151611f91908c906127e1565b156120af578060030160059054906101000a90046001600160a01b03166001600160a01b03166370a082318e6040518263ffffffff1660e01b8152600401611fd991906130d3565b60206040518083038186803b158015611ff157600080fd5b505afa158015612005573d6000803e3d6000fd5b505050506040513d601f19601f820116820180604052508101906120299190612fa4565b6040830181905260208301518351600092612048929161145a916122e1565b61012084015190915061205b9082612839565b61012084015260a0830151612081906120759083906122e1565b61016085015190612839565b61016084015260c08301516120a79061209b9083906122e1565b61018085015190612839565b610180840152505b60e08201516120bf908c9061285e565b1561218a578060040160009054906101000a90046001600160a01b03166001600160a01b03166370a082318e6040518263ffffffff1660e01b815260040161210791906130d3565b60206040518083038186803b15801561211f57600080fd5b505afa158015612133573d6000803e3d6000fd5b505050506040513d601f19601f820116820180604052508101906121579190612fa4565b606083018190526020830151835161218392612177929161145a916122e1565b61014084015190612839565b6101408301525b505b60e0810180516001019052611e73565b6000816101200151116121b05760006121c5565b6101208101516101608201516121c59161231b565b6101608201526101208101516121dc5760006121f1565b6101208101516101808201516121f19161231b565b610180820181905261012082015161014083015161220e926128af565b610100820181905261012082015161014083015161016084015161018090940151919850965091945090925090505b965096509650965096915050565b60008061225885846128d3565b90508381101561226c5760009150506108ca565b6122768185611b55565b95945050505050565b600381015460009064ffffffffff9081169042168114156122af57505060018101546001600160801b0316610631565b60018301546002840154600091611782916001600160801b039182169161177c911685612942565b5460301c60ff1690565b6000826122f057506000610657565b828202828482816122fd57fe5b04146108ca5760405162461bcd60e51b815260040161043e90613390565b60006108ca83836040518060400160405280601a81526020017f536166654d6174683a206469766973696f6e206279207a65726f000000000000815250612980565b60006108ca8383426129b7565b6000821580612377575081155b1561238457506000610657565b816b019d971e4fe8401e74000000198161239a57fe5b0483111560405180604001604052806002815260200161068760f31b815250906123d75760405162461bcd60e51b815260040161043e91906132dc565b506b033b2e3c9fd0803ce80000006002815b0483850201816123f557fe5b049392505050565b600285015460009081906001600160801b0316858582156125345760006124248488612942565b9050612430818a61236a565b604080518082019091526002815261353160f01b60208201529093506001600160801b038411156124745760405162461bcd60e51b815260040161043e91906132dc565b5060018b0180546fffffffffffffffffffffffffffffffff19166001600160801b03851617905589156125325760028b01546000906124c390600160801b90046001600160801b03168961235d565b90506124cf818a61236a565b6040805180820190915260028152611a9960f11b60208201529093506001600160801b038411156125135760405162461bcd60e51b815260040161043e91906132dc565b505060018b0180546001600160801b03808516600160801b0291161790555b505b600399909901805464ffffffffff19164264ffffffffff16179055989650505050505050565b612562612c70565b61256b87612644565b610120820181905261257d575061263c565b612587868661236a565b6080820152612596868461236a565b6060820181905260808201516125ac9190611b55565b60e082018190526101208201516125c391906128d3565b610100820181905215610fc0576003870154610100820151604051637df5bd3b60e01b8152600160281b9092046001600160a01b031691637df5bd3b9161260e918890600401613537565b600060405180830381600087803b15801561262857600080fd5b505af11580156104a6573d6000803e3d6000fd5b505050505050565b5460401c61ffff1690565b600081848411156126735760405162461bcd60e51b815260040161043e91906132dc565b505050900390565b61268d826001600160a01b0316611ced565b6126a95760405162461bcd60e51b815260040161043e90613406565b60006060836001600160a01b0316836040516126c591906130b7565b6000604051808303816000865af19150503d8060008114612702576040519150601f19603f3d011682016040523d82523d6000602084013e612707565b606091505b5091509150816127295760405162461bcd60e51b815260040161043e906133d1565b805115610cbd57808060200190518101906127449190612f88565b610cbd5760405162461bcd60e51b815260040161043e9061330f565b511590565b60006080821060405180604001604052806002815260200161373760f01b815250906127a45760405162461bcd60e51b815260040161043e91906132dc565b50509051600360029092021c16151590565b5461ffff80821692601083901c821692602081901c831692603082901c60ff169260409290921c1690565b60006080821060405180604001604052806002815260200161373760f01b815250906128205760405162461bcd60e51b815260040161043e91906132dc565b5050815160016002830281019190911c16151592915050565b6000828201838110156108ca5760405162461bcd60e51b815260040161043e90613359565b60006080821060405180604001604052806002815260200161373760f01b8152509061289d5760405162461bcd60e51b815260040161043e91906132dc565b50509051600160029092021c16151590565b6000826128bf57506000196108ca565b611782836128cd86856128d3565b90612a8d565b60008215806128e0575081155b156128ed57506000610657565b8161138819816128f957fe5b0483111560405180604001604052806002815260200161068760f31b815250906129365760405162461bcd60e51b815260040161043e91906132dc565b506127106002816123e9565b6000806129564264ffffffffff8516611b55565b9050611782612963612b30565b6301e1338061297287856122e1565b8161297957fe5b0490612839565b600081836129a15760405162461bcd60e51b815260040161043e91906132dc565b5060008385816129ad57fe5b0495945050505050565b6000806129cb8364ffffffffff8616611b55565b9050806129e2576129da612b30565b9150506108ca565b60001981016000600283116129f85760006129fd565b600283035b90506301e1338087046000612a12828061236a565b90506000612a20828461236a565b905060006002612a34846114548a8a6122e1565b81612a3b57fe5b04905060006006612a528461145489818d8d6122e1565b81612a5957fe5b049050612a7d81612a778481612a6f8a8e6122e1565b612a77612b30565b90612839565b9c9b505050505050505050505050565b604080518082019091526002815261035360f41b602082015260009082612ac75760405162461bcd60e51b815260040161043e91906132dc565b5060408051808201909152600280825261068760f31b6020830152830490670de0b6b3a7640000821904851115612b115760405162461bcd60e51b815260040161043e91906132dc565b508281670de0b6b3a764000086020181612b2757fe5b04949350505050565b6b033b2e3c9fd0803ce800000090565b604051806101400160405280612b54612b9b565b815260006020820181905260408201819052606082018190526080820181905260a0820181905260c0820181905260e0820181905261010082018190526101209091015290565b6040518060200160405280600081525090565b6040518060800160405280600081526020016000815260200160008152602001600081525090565b604051806102400160405280600081526020016000815260200160008152602001600081526020016000815260200160008152602001600081526020016000815260200160008152602001600081526020016000815260200160008152602001600081526020016000815260200160001515815260200160006001600160a01b031681526020016000151581526020016000151581525090565b60405180610160016040528060008152602001600081526020016000815260200160008152602001600081526020016000815260200160008152602001600081526020016000815260200160008152602001600064ffffffffff1681525090565b803561ffff8116811461065757600080fd5b600060208284031215612cf4578081fd5b81356108ca816135ed565b600060208284031215612d10578081fd5b81516108ca816135ed565b60008060408385031215612d2d578081fd5b8235612d38816135ed565b91506020830135612d48816135ed565b809150509250929050565b60008060008060808587031215612d68578182fd5b8435612d73816135ed565b93506020850135612d83816135ed565b92506040850135612d93816135ed565b91506060850135612da3816135ed565b939692955090935050565b600080600080600060a08688031215612dc5578081fd5b8535612dd0816135ed565b94506020860135612de0816135ed565b93506040860135612df0816135ed565b9250606086013591506080860135612e0781613602565b809150509295509295909350565b60008060008060008060c08789031215612e2d578081fd5b8635612e38816135ed565b95506020870135612e48816135ed565b94506040870135612e58816135ed565b959894975094956060810135955060808101359460a0909101359350915050565b60008060408385031215612e8b578182fd5b8235612e96816135ed565b946020939093013593505050565b600080600060608486031215612eb8578283fd5b8335612ec3816135ed565b9250602084013591506040840135612eda816135ed565b809150509250925092565b60008060008060808587031215612efa578384fd5b8435612f05816135ed565b9350602085013592506040850135612f1c816135ed565b9150612f2b8660608701612cd1565b905092959194509250565b60008060008060808587031215612f4b578384fd5b8435612f56816135ed565b935060208501359250612d938660408701612cd1565b600060208284031215612f7d578081fd5b81356108ca81613602565b600060208284031215612f99578081fd5b81516108ca81613602565b600060208284031215612fb5578081fd5b5051919050565b60008060408385031215612fce578182fd5b82519150602083015167ffffffffffffffff80821115612fec578283fd5b818501915085601f830112612fff578283fd5b81518181111561300d578384fd5b604051601f8201601f19168101602001838111828210171561302d578586fd5b604052818152838201602001881015613044578485fd5b6130558260208301602087016135c1565b809450505050509250929050565b60008060408385031215613075578182fd5b505080516020909101519092909150565b6001600160a01b03169052565b519052565b6001600160801b03169052565b64ffffffffff169052565b60ff169052565b600082516130c98184602087016135c1565b9190910192915050565b6001600160a01b0391909116815260200190565b6001600160a01b03948516815292909316602083015260408201526001600160801b03909116606082015260800190565b6001600160a01b03929092168252602082015260400190565b6001600160a01b03958616815293851660208501529190931660408301526060820192909252901515608082015260a00190565b6001600160a01b039384168152919092166020820152604081019190915260600190565b6001600160a01b03968716815294909516602085015260408401929092526060830152608082015260a081019190915260c00190565b6001600160a01b039a8b168152602081019990995296891660408901526060880195909552608087019390935260a086019190915260c085015260e08401526101008301529091166101208201526101400190565b6001600160a01b0393909316835260208301919091526001600160801b0316604082015260600190565b6001600160a01b039889168152602081019790975260408701959095526060860193909352608085019190915260a084015260c083015290911660e08201526101000190565b6020808252825182820181905260009190848201906040850190845b818110156132c55783516001600160a01b0316835292840192918401916001016132a0565b50909695505050505050565b901515815260200190565b60006020825282518060208401526132fb8160408501602087016135c1565b601f01601f19169190910160400192915050565b6020808252602a908201527f5361666542455032303a204245503230206f7065726174696f6e20646964206e6040820152691bdd081cdd58d8d9595960b21b606082015260800190565b6020808252601b908201527f536166654d6174683a206164646974696f6e206f766572666c6f770000000000604082015260600190565b60208082526021908201527f536166654d6174683a206d756c7469706c69636174696f6e206f766572666c6f6040820152607760f81b606082015260800190565b6020808252818101527f5361666542455032303a206c6f772d6c6576656c2063616c6c206661696c6564604082015260600190565b6020808252601f908201527f5361666542455032303a2063616c6c20746f206e6f6e2d636f6e747261637400604082015260600190565b9051815260200190565b60006101408201905061345b828451613093565b602083015161346d6020840182613098565b5060408301516134806040840182613098565b5060608301516134936060840182613098565b5060808301516134a66080840182613098565b5060a08301516134b960a08401826130a5565b5060c08301516134cc60c0840182613086565b5060e08301516134df60e0840182613086565b50610100808401516134f382850182613086565b505061012080840151613508828501826130b0565b505092915050565b9384526001600160a01b039283166020850152908216604084015216606082015260800190565b918252602082015260400190565b93845260208401929092526001600160a01b03166040830152606082015260800190565b90815260200190565b93845260208401929092526001600160801b03908116604084015216606082015260800190565b958652602086019490945260408501929092526060840152608083015260a082015260c00190565b60005b838110156135dc5781810151838201526020016135c4565b83811115610cbd5750506000910152565b6001600160a01b0381168114610d5757600080fd5b8015158114610d5757600080fdfea2646970667358221220f4035f3bef4be45edaff6613fc633290b238c801dc838b028e51c99ef8ea20e064736f6c634300060c0033",
  "linkReferences": {
    "contracts/protocol/libraries/logic/ReserveLogic.sol": {
      "ReserveLogic": [
        {
          "length": 20,
          "start": 3191
        }
      ]
    },
    "contracts/protocol/libraries/logic/ValidationLogic.sol": {
      "ValidationLogic": [
        {
          "length": 20,
          "start": 1733
        },
        {
          "length": 20,
          "start": 2513
        },
        {
          "length": 20,
          "start": 4121
        },
        {
          "length": 20,
          "start": 5252
        }
      ]
    }
  },
  "deployedLinkReferences": {
    "contracts/protocol/libraries/logic/ReserveLogic.sol": {
      "ReserveLogic": [
        {
          "length": 20,
          "start": 3159
        }
      ]
    },
    "contracts/protocol/libraries/logic/ValidationLogic.sol": {
      "ValidationLogic": [
        {
          "length": 20,
          "start": 1701
        },
        {
          "length": 20,
          "start": 2481
        },
        {
          "length": 20,
          "start": 4089
        },
        {
          "length": 20,
          "start": 5220
        }
      ]
    }
  }
}